{
    "contractName": "Pool",
    "abi": [
        {
            "inputs": [
                {
                    "internalType": "contract IERC20",
                    "name": "_daiToken",
                    "type": "address"
                }
            ],
            "stateMutability": "nonpayable",
            "type": "constructor"
        },
        {
            "anonymous": false,
            "inputs": [
                {
                    "indexed": true,
                    "internalType": "address",
                    "name": "to",
                    "type": "address"
                },
                {
                    "indexed": false,
                    "internalType": "uint256",
                    "name": "amount",
                    "type": "uint256"
                }
            ],
            "name": "CliamReward",
            "type": "event"
        },
        {
            "anonymous": false,
            "inputs": [
                {
                    "indexed": true,
                    "internalType": "address",
                    "name": "to",
                    "type": "address"
                },
                {
                    "indexed": false,
                    "internalType": "uint256",
                    "name": "amount",
                    "type": "uint256"
                }
            ],
            "name": "FundAccount",
            "type": "event"
        },
        {
            "anonymous": false,
            "inputs": [
                {
                    "indexed": true,
                    "internalType": "address",
                    "name": "from",
                    "type": "address"
                },
                {
                    "indexed": false,
                    "internalType": "uint256",
                    "name": "amount",
                    "type": "uint256"
                }
            ],
            "name": "Stake",
            "type": "event"
        },
        {
            "anonymous": false,
            "inputs": [
                {
                    "indexed": true,
                    "internalType": "address",
                    "name": "from",
                    "type": "address"
                },
                {
                    "indexed": false,
                    "internalType": "uint256",
                    "name": "amount",
                    "type": "uint256"
                }
            ],
            "name": "Unstake",
            "type": "event"
        },
        {
            "anonymous": false,
            "inputs": [
                {
                    "indexed": true,
                    "internalType": "address",
                    "name": "to",
                    "type": "address"
                },
                {
                    "indexed": false,
                    "internalType": "uint256",
                    "name": "amount",
                    "type": "uint256"
                }
            ],
            "name": "YieldWithdraw",
            "type": "event"
        },
        {
            "inputs": [
                {
                    "internalType": "uint256",
                    "name": "",
                    "type": "uint256"
                }
            ],
            "name": "betters",
            "outputs": [
                {
                    "internalType": "address",
                    "name": "",
                    "type": "address"
                }
            ],
            "stateMutability": "view",
            "type": "function"
        },
        {
            "inputs": [
                {
                    "internalType": "address",
                    "name": "",
                    "type": "address"
                }
            ],
            "name": "bettingBalance",
            "outputs": [
                {
                    "internalType": "uint256",
                    "name": "",
                    "type": "uint256"
                }
            ],
            "stateMutability": "view",
            "type": "function"
        },
        {
            "inputs": [
                {
                    "internalType": "uint256",
                    "name": "_amount",
                    "type": "uint256"
                }
            ],
            "name": "calculateTransactionFee",
            "outputs": [
                {
                    "internalType": "uint256",
                    "name": "",
                    "type": "uint256"
                }
            ],
            "stateMutability": "pure",
            "type": "function"
        },
        {
            "inputs": [
                {
                    "internalType": "uint256",
                    "name": "_amount",
                    "type": "uint256"
                }
            ],
            "name": "claimReward",
            "outputs": [],
            "stateMutability": "nonpayable",
            "type": "function"
        },
        {
            "inputs": [],
            "name": "daiToken",
            "outputs": [
                {
                    "internalType": "contract IERC20",
                    "name": "",
                    "type": "address"
                }
            ],
            "stateMutability": "view",
            "type": "function"
        },
        {
            "inputs": [
                {
                    "internalType": "uint256",
                    "name": "_amount",
                    "type": "uint256"
                }
            ],
            "name": "distributeTransactionFee",
            "outputs": [],
            "stateMutability": "nonpayable",
            "type": "function"
        },
        {
            "inputs": [
                {
                    "internalType": "address",
                    "name": "",
                    "type": "address"
                }
            ],
            "name": "dueTime",
            "outputs": [
                {
                    "internalType": "uint256",
                    "name": "",
                    "type": "uint256"
                }
            ],
            "stateMutability": "view",
            "type": "function"
        },
        {
            "inputs": [
                {
                    "internalType": "uint256",
                    "name": "_amount",
                    "type": "uint256"
                }
            ],
            "name": "fundAccount",
            "outputs": [],
            "stateMutability": "nonpayable",
            "type": "function"
        },
        {
            "inputs": [
                {
                    "internalType": "address",
                    "name": "",
                    "type": "address"
                }
            ],
            "name": "isBetting",
            "outputs": [
                {
                    "internalType": "bool",
                    "name": "",
                    "type": "bool"
                }
            ],
            "stateMutability": "view",
            "type": "function"
        },
        {
            "inputs": [
                {
                    "internalType": "address",
                    "name": "",
                    "type": "address"
                }
            ],
            "name": "isStaking",
            "outputs": [
                {
                    "internalType": "bool",
                    "name": "",
                    "type": "bool"
                }
            ],
            "stateMutability": "view",
            "type": "function"
        },
        {
            "inputs": [
                {
                    "internalType": "uint256",
                    "name": "_amount",
                    "type": "uint256"
                }
            ],
            "name": "stake",
            "outputs": [],
            "stateMutability": "nonpayable",
            "type": "function"
        },
        {
            "inputs": [
                {
                    "internalType": "uint256",
                    "name": "",
                    "type": "uint256"
                }
            ],
            "name": "stakers",
            "outputs": [
                {
                    "internalType": "address",
                    "name": "",
                    "type": "address"
                }
            ],
            "stateMutability": "view",
            "type": "function"
        },
        {
            "inputs": [
                {
                    "internalType": "address",
                    "name": "",
                    "type": "address"
                }
            ],
            "name": "stakingBalance",
            "outputs": [
                {
                    "internalType": "uint256",
                    "name": "",
                    "type": "uint256"
                }
            ],
            "stateMutability": "view",
            "type": "function"
        },
        {
            "inputs": [],
            "name": "totalPoolStakedBalance",
            "outputs": [
                {
                    "internalType": "uint256",
                    "name": "",
                    "type": "uint256"
                }
            ],
            "stateMutability": "view",
            "type": "function"
        },
        {
            "inputs": [
                {
                    "internalType": "uint256",
                    "name": "_amount",
                    "type": "uint256"
                }
            ],
            "name": "unstake",
            "outputs": [],
            "stateMutability": "nonpayable",
            "type": "function"
        },
        {
            "inputs": [],
            "name": "withdrawYield",
            "outputs": [],
            "stateMutability": "nonpayable",
            "type": "function"
        },
        {
            "inputs": [
                {
                    "internalType": "address",
                    "name": "",
                    "type": "address"
                }
            ],
            "name": "yieldBalance",
            "outputs": [
                {
                    "internalType": "uint256",
                    "name": "",
                    "type": "uint256"
                }
            ],
            "stateMutability": "view",
            "type": "function"
        }
    ],
    "bytecode": "608060405234801561001057600080fd5b5060405161100538038061100583398101604081905261002f91610054565b600980546001600160a01b0319166001600160a01b0392909216919091179055610084565b60006020828403121561006657600080fd5b81516001600160a01b038116811461007d57600080fd5b9392505050565b610f72806100936000396000f3fe608060405234801561001057600080fd5b506004361061010b5760003560e01c8063a694fc3a116100a2578063c5710a8211610071578063c5710a8214610261578063d0966bfc14610281578063d223521d146102a1578063e507a8a4146102b4578063fd5e6dd1146102bc57600080fd5b8063a694fc3a14610205578063ae169a5014610218578063ba5817721461022b578063be22f5461461024e57600080fd5b806344256aea116100de57806344256aea1461017457806345bc78ab146101875780636f49712b146101a75780639fda5d62146101da57600080fd5b8063097b16c71461011057806316a53b22146101255780632d798d63146101415780632e17de7814610161575b600080fd5b61012361011e366004610dd3565b6102cf565b005b61012e60065481565b6040519081526020015b60405180910390f35b61012e61014f366004610dec565b60026020526000908152604090205481565b61012361016f366004610dd3565b610548565b610123610182366004610dd3565b610733565b61012e610195366004610dec565b60006020819052908152604090205481565b6101ca6101b5366004610dec565b60016020526000908152604090205460ff1681565b6040519015158152602001610138565b6101ed6101e8366004610dd3565b6108b9565b6040516001600160a01b039091168152602001610138565b610123610213366004610dd3565b6108e3565b610123610226366004610dd3565b610ae1565b6101ca610239366004610dec565b60056020526000908152604090205460ff1681565b6009546101ed906001600160a01b031681565b61012e61026f366004610dec565b60036020526000908152604090205481565b61012e61028f366004610dec565b60046020526000908152604090205481565b61012e6102af366004610dd3565b610c1b565b610123610c3e565b6101ed6102ca366004610dd3565b610d5a565b60008111801561034957506009546040516370a0823160e01b815233600482015282916001600160a01b0316906370a0823190602401602060405180830381865afa158015610322573d6000803e3d6000fd5b505050506040513d601f19601f820116820180604052508101906103469190610e15565b10155b61036e5760405162461bcd60e51b815260040161036590610e2e565b60405180910390fd5b600061037982610c1b565b905060006103878383610e7b565b6009546040516323b872dd60e01b8152336004820152306024820152604481018590529192506001600160a01b0316906323b872dd906064016020604051808303816000875af11580156103df573d6000803e3d6000fd5b505050506040513d601f19601f820116820180604052508101906104039190610e93565b506009546040516323b872dd60e01b8152336004820152306024820152604481018590526001600160a01b03909116906323b872dd906064016020604051808303816000875af115801561045b573d6000803e3d6000fd5b505050506040513d601f19601f8201168201806040525081019061047f9190610e93565b50336000908152600460205260408120805485929061049f908490610e7b565b909155505033600081815260056020526040808220805460ff191660019081179091556007805491820181559092527fa66cc928b5edb82af9bd49922954155ab7b0942694bea4ce44661d9a8736c68890910180546001600160a01b03191683179055517fe5cb57934c8213e480cb407ea213fe802e90db9a03cb16dd4447ebf6d6d2975d906105329086815260200190565b60405180910390a261054382610733565b505050565b33600090815260026020526040902054421161059c5760405162461bcd60e51b8152602060048201526013602482015272756e7374616b65206e6f74207965742064756560681b6044820152606401610365565b6000811180156105bb5750336000908152602081905260409020548111155b6106075760405162461bcd60e51b815260206004820152601e60248201527f596f752063616e6e6f7420756e7374616b65207a65726f20746f6b656e7300006044820152606401610365565b33600090815260026020908152604080832042905590829052812080549192918291908490610637908490610eb5565b9250508190555080600660008282546106509190610eb5565b909155505033600090815260208190526040812054900361068357336000908152600160205260409020805460ff191690555b60095460405163a9059cbb60e01b8152336004820152602481018390526001600160a01b039091169063a9059cbb906044016020604051808303816000875af11580156106d4573d6000803e3d6000fd5b505050506040513d601f19601f820116820180604052508101906106f89190610e93565b5060405181815233907f85082129d87b2fe11527cb1b3b7a520aeb5aa6913f88a3d8757fe40d1db02fdd906020015b60405180910390a25050565b600081116107835760405162461bcd60e51b815260206004820152601a60248201527f596f752063616e6e6f7420616464207a65726f20746f6b656e730000000000006044820152606401610365565b60005b6008548110156108b55760016000600883815481106107a7576107a7610ecc565b60009182526020808320909101546001600160a01b0316835282019290925260400190205460ff16156108a3576000806000600884815481106107ec576107ec610ecc565b60009182526020808320909101546001600160a01b03168352820192909252604001902054905061081c81610d6a565b60006006548261082c9190610ee2565b905061083781610d6a565b60006108438286610f04565b905061084e81610d6a565b80600360006008878154811061086657610866610ecc565b60009182526020808320909101546001600160a01b031683528201929092526040018120805490919061089a908490610e7b565b90915550505050505b806108ad81610f23565b915050610786565b5050565b600781815481106108c957600080fd5b6000918252602090912001546001600160a01b0316905081565b60008111801561095d57506009546040516370a0823160e01b815233600482015282916001600160a01b0316906370a0823190602401602060405180830381865afa158015610936573d6000803e3d6000fd5b505050506040513d601f19601f8201168201806040525081019061095a9190610e15565b10155b6109795760405162461bcd60e51b815260040161036590610e2e565b6009546040516323b872dd60e01b8152336004820152306024820152604481018390526001600160a01b03909116906323b872dd906064016020604051808303816000875af11580156109d0573d6000803e3d6000fd5b505050506040513d601f19601f820116820180604052508101906109f49190610e93565b508060066000828254610a079190610e7b565b90915550503360009081526020819052604081208054839290610a2b908490610e7b565b90915550610a3e9050426213c680610e7b565b33600081815260026020908152604080832094909455600190819052838220805460ff1916821790556008805491820181559091527ff3f7a9fe364faab93b216da50a3214154f22a0a2b415b23a84c8169e8b636ee30180546001600160a01b0319168217905590517febedb8b3c678666e7f36970bc8f57abf6d8fa2e828c0da91ea5b75bf68ed101a90610ad69084815260200190565b60405180910390a250565b600081118015610b005750336000908152600460205260409020548111155b610b1c5760405162461bcd60e51b815260040161036590610e2e565b33600090815260046020526040812080549192918291908490610b40908490610eb5565b9091555050336000908152600460205260408120549003610b7357336000908152600560205260409020805460ff191690555b60095460405163a9059cbb60e01b8152336004820152602481018390526001600160a01b039091169063a9059cbb906044016020604051808303816000875af1158015610bc4573d6000803e3d6000fd5b505050506040513d601f19601f82011682018060405250810190610be89190610e93565b5060405181815233907f0fd86f2cc8350d3c635b04c5f9362613a29ee19ad766a82c0863fa93ec6db86b90602001610727565b600080610c29836003610f04565b9050610c376103e882610ee2565b9392505050565b33600090815260036020526040902054610c9a5760405162461bcd60e51b815260206004820152601f60248201527f596f752063616e6e6f74207769746864726177207a65726f20746f6b656e73006044820152606401610365565b336000818152600360205260408082208054929055600954905163a9059cbb60e01b815260048101939093526024830182905290916001600160a01b039091169063a9059cbb906044016020604051808303816000875af1158015610d03573d6000803e3d6000fd5b505050506040513d601f19601f82011682018060405250810190610d279190610e93565b5060405181815233907f92044e3943309ee5950e21bc7421d02c1df75f0df33c0d97c1143687b49a4c5790602001610ad6565b600881815481106108c957600080fd5b610daf81604051602401610d8091815260200190565b60408051601f198184030181529190526020810180516001600160e01b031663f5b1bba960e01b179052610db2565b50565b80516a636f6e736f6c652e6c6f67602083016000808483855afa5050505050565b600060208284031215610de557600080fd5b5035919050565b600060208284031215610dfe57600080fd5b81356001600160a01b0381168114610c3757600080fd5b600060208284031215610e2757600080fd5b5051919050565b6020808252601c908201527f596f752063616e6e6f74207374616b65207a65726f20746f6b656e7300000000604082015260600190565b634e487b7160e01b600052601160045260246000fd5b60008219821115610e8e57610e8e610e65565b500190565b600060208284031215610ea557600080fd5b81518015158114610c3757600080fd5b600082821015610ec757610ec7610e65565b500390565b634e487b7160e01b600052603260045260246000fd5b600082610eff57634e487b7160e01b600052601260045260246000fd5b500490565b6000816000190483118215151615610f1e57610f1e610e65565b500290565b600060018201610f3557610f35610e65565b506001019056fea2646970667358221220e9c1a50f78edf458019c5fdca1823468c65a864cebee412a1eeb7df8626c309d64736f6c634300080d0033",
    "sourcePath": "/Users/MacBook /Desktop/team/omitchPool/contracts/Pool.sol",
    "compiler": {
        "name": "solc",
        "version": "0.8.13+commit.abaa5c0e"
    },
    "functionHashes": {
        "betters(uint256)": "9fda5d62",
        "bettingBalance(address)": "d0966bfc",
        "calculateTransactionFee(uint256)": "d223521d",
        "claimReward(uint256)": "ae169a50",
        "daiToken()": "be22f546",
        "distributeTransactionFee(uint256)": "44256aea",
        "dueTime(address)": "2d798d63",
        "fundAccount(uint256)": "097b16c7",
        "isBetting(address)": "ba581772",
        "isStaking(address)": "6f49712b",
        "stake(uint256)": "a694fc3a",
        "stakers(uint256)": "fd5e6dd1",
        "stakingBalance(address)": "45bc78ab",
        "totalPoolStakedBalance()": "16a53b22",
        "unstake(uint256)": "2e17de78",
        "withdrawYield()": "e507a8a4",
        "yieldBalance(address)": "c5710a82"
    },
    "gasEstimates": {
        "creation": {
            "codeDepositCost": "790800",
            "executionCost": "infinite",
            "totalCost": "infinite"
        },
        "external": {
            "betters(uint256)": "4703",
            "bettingBalance(address)": "2517",
            "calculateTransactionFee(uint256)": "508",
            "claimReward(uint256)": "infinite",
            "daiToken()": "2426",
            "distributeTransactionFee(uint256)": "infinite",
            "dueTime(address)": "2541",
            "fundAccount(uint256)": "infinite",
            "isBetting(address)": "2563",
            "isStaking(address)": "2563",
            "stake(uint256)": "infinite",
            "stakers(uint256)": "4724",
            "stakingBalance(address)": "2521",
            "totalPoolStakedBalance()": "2330",
            "unstake(uint256)": "infinite",
            "withdrawYield()": "infinite",
            "yieldBalance(address)": "2495"
        }
    }
}